:020000040800F2
:10000000F821002049190008630900086509000863
:1000100067090008690900086B0900080000000072
:100020000000000000000000000000006D09000852
:100030006F0900080000000071090008730900083A
:100040000D18000875190008791900087D190008B5
:1000500081190008851900089117000889190008FE
:100060008D190008911900089519000899190008C0
:100070009D190008A1190008A5190008A919000870
:10008000AD190008B1190008B5190008B919000820
:10009000BD190008C1190008C5190008C9190008D0
:1000A000CD190008D1190008D5190008D919000880
:1000B000DD190008D9170008E1190008E519000842
:1000C000E9190008ED190008F1190008F5190008F0
:1000D000F9190008C3110008FD190008011A0008E9
:1000E000051A0008091A00080D1A0008111A00085C
:1000F000151A0008191A00081D1A0008211A00080C
:10010000251A0008291A00082D1A0008311A0008BB
:10011000351A0008391A00083D1A0008411A00086B
:10012000451A0008491A00084D1A0008511A00081B
:10013000551A0008591A00085D1A0008611A0008CB
:10014000651A0008691A00086D1A0008711A00087B
:10015000751A0008791A00087D1A0008811A00082B
:10016000851A0008891A00088D1A0008911A0008DB
:10017000951A0008991A00089D1A0008A11A00088B
:10018000A51A0008A91A00082DE9F04F80460FF2C1
:10019000847095B092461D46D0E90023CDE9132323
:1001A00003AE00200391B0610DF1340900E0A244D8
:1001B0000020ADF8020013AB4FF0FF3251460DF1B5
:1001C000020000F0B3FB0446012C05DA9AF80000A7
:1001D000441EA441E443E40FBDF8020025280CBFEF
:1001E000A4F1010BA346BBF1010F0EDB574617F834
:1001F000011B0398C0470028039000F0CE81B0692E
:10020000401CBBF1010BB061F1D1BDF80200252803
:1002100004D10020F0603061706105E00028C6D193
:10022000B069BCE140F001001AF8011F2029F9D0A3
:1002300023290DD02B2904D02D2906D030290AD00E
:100240000CE040F0020080B2EEE740F00400FAE774
:1002500040F00800F7E740F01000F4E72A290FD13A
:100260002968296051F8042B2960002A326204D5DC
:10027000514240F00400316280B20AF1010A15E0F7
:10028000002131620CE0316A6FF00043994205D0E1
:1002900001EB810302EB4301303931620AF1010ABB
:1002A0009AF80020A2F130010A29ECD39AF8001044
:1002B0002E2903D04FF0FF31F16122E01AF8011F1F
:1002C0002A2908D1296829600AF1010A51F8042B6A
:1002D0002960F26115E00021F1610CE0F1696FF035
:1002E0000043994205D001EB810302EB4301303911
:1002F000F1610AF1010A9AF80020A2F130010A29FD
:10030000ECD3B0840FF214609AF8001000F01EFBDA
:1003100008B11AF8010B8DF832009DF832006828F8
:1003200004BF9AF80000682804D162208DF83200DA
:100330000AF1010A0DA8B0601AF8014B252C13D060
:10034000582C40D0632C00F09880642C18BF692C86
:1003500071D06F2C37D0702C2BD0732C0AD0752C09
:1003600018BF782C2FD0ABE00120F06025208DF84D
:100370003400AFE09DF832006C282868286014D063
:1003800050F8044B28607460F769002F04D52046AC
:1003900000F0F0FA074606E03A460021204600F059
:1003A00005FB00B1071B376194E050F8042B28606F
:1003B0007FE02868286050F8041B286002910DA88F
:1003C0007060782155E09DF832006C280DD07128BE
:1003D00018BF6A2809D12868C01D20F007022A60CA
:1003E000D2E9000108322A6004E02968296051F846
:1003F000040B296002909DF83200682802D102A8FF
:10040000008803E0622802D102A80078029096F8E2
:100410002400000728D5029830B344F02000782843
:1004200022D1F068302100F80910401C411CF16015
:1004300000F8094018E09DF83200294600F0B2F8B3
:100440000028029002D5F0682D2109E0B08C8107C8
:1004500002D5F0682B2103E0C00705D5F068202104
:1004600000F80910401CF0600DA8F16808187060D1
:10047000214602A800F0CFF92CE09DF832006C284C
:1004800009D00120F0602868286050F8041B28601B
:100490008DF834101EE02868286001AA50F8041B6B
:1004A0002860ADF804100020ADF806004FF0FF30D2
:1004B000F06102A9404600F09BF800280AD56CE0E4
:1004C0000120F06025208DF834001CB10220F0607E
:1004D00089F80140306AF168401A7169401A31693F
:1004E000441A96F8240040070FD420208DF800000D
:1004F000002708E0012300AA02A9404600F0F2F913
:1005000000284AD17F1CA742F4DBF7680DF1340BB9
:100510000AE01BF8011B0398C047002803903CD059
:10052000B069401CB0617F1E002FF2D130208DF8E1
:1005300000004FF0000B776908E0012300AA02A930
:10054000404600F0CFF940BB0BF1010BBB45F4DB9B
:100550003769D6F804B009E01BF8011B0398C047BF
:100560000390D0B1B069401CB0617F1E002FF3D161
:1005700096F8240040077FF51BAE20208DF8000080
:1005800000E07F1CA742BFF613AE012300AA02A918
:10059000404600F0A7F90028F3D04FF0FF3015B027
:1005A000BDE8F08F622815D068280CD06C2818BFE1
:1005B000742816D07A2814D10A680A6052F8040BFD
:1005C0000A60002170470A680A6052F8040B0A604A
:1005D00000B20BE00A680A6052F8040B0A6040B2ED
:1005E00004E00A680A6052F8040B0A60C1177047F9
:1005F0002DE9F44F0D4694B0D5F820A0BAF1000FC4
:10060000804648BF6FF0004A00F0FCF9696A401864
:1006100001900FF21030D0E90023CDE9022395F8C4
:100620002800400702D40198412805D240200DF14E
:1006300010090190002607E000F0EAF95FEA0009DE
:10064000F8D1AAE7AAEB040ABAF1010FC0F28B8035
:100650001498018802AA0DF1010000F031FA002877
:10066000044600F18E801498008810B9641E00F1D1
:100670008880A24577DB286901992218914260D2CF
:100680006E624042A969401A6969461A95F82800C5
:1006900040070FD420208DF80000002708E0012338
:1006A00000AA2946404600F01DF9002869D17F1CA8
:1006B000B742F4DB2F69CB460AE01BF8011B6868E0
:1006C000C047002868605CD0E869401CE8617F1E74
:1006D000002FF2D130208DF800004FF0000BAF69F1
:1006E00009E0012300AA2946404600F0FBF8002853
:1006F00047D10BF1010BBB45F3DB6F69D5F808B0AF
:1007000009E01BF8011B6868C0476860C8B3E86966
:10071000401CE8617F1E002FF3D195F828004007A8
:100720000DD520208DF8000007E0012300AA2946FE
:10073000404600F0D7F820BB7F1CB742F5DB00260F
:100740002E61224628690DF10101484400F0C6F9E6
:100750002869201828611498801C1490801E008835
:1007600000287FF46FAF686A2969401AA969401AA6
:100770006969A0EB010A95F82800400710D400240D
:100780000CE04FF0FF363EE068682021C0470028AB
:100790006860F6D0E869401CE861641C5445F3DBEE
:1007A0002B694A462946404600F09CF80028E8D1CB
:1007B000AC69002709E068683021C04700286860FC
:1007C000DFD0E869401CE8617F1CA742F3DB6B695E
:1007D000AA682946404600F085F80028D1D195F84E
:1007E000280040070DD5002409E068682021C04793
:1007F00000286860C5D0E869401CE861641C544565
:10080000F3DB2E616E6204A881451CBF484600F0F0
:10081000A1F93046C3E6F0B4C2686F2908BF0824C6
:1008200005D041F02003782B14BF0A24102418238C
:100830000668642918BF6929374602D1002E48BFCF
:100840007F425FB9056A4DB9082C27D190F828106E
:10085000090723D530211723D1751FE0B7FBF4F624
:1008600004FB16773037FFB25D1E3A2FA4BFA1F10B
:10087000510C6744AF542B46370003D085689E184F
:10088000B542EBD3082C09D190F82810090705D5FB
:10089000995C302902D05B1E302199549A188260ED
:1008A000C3F11801026A4161914208DA511A81616B
:1008B0004FF6EF72018D11400185F0BC7047002AA0
:1008C0000ED590F8282002F01402102A08D1426AAE
:1008D0000369D21A8369D21A531A012BA8BF836104
:1008E000F0BC7047F8B504460D4616461F4600207A
:1008F00004E0E869401CE8617F1E002047B116F85B
:10090000011B6868A04700286860F2D14FF0FF30F3
:10091000F2BD00000000000000000000686C747A66
:100920004C0000000000000000000000F8B5044684
:100930000D4616461F4600F04DF93B463246294605
:10094000204601B0BDE8F04000F05BB90278C9B2C2
:100950008A421AB11CBF10F8012FF9E718BF002016
:1009600070477047FEE7FEE7FEE7FEE77047704717
:100970007047704700F10103810704D010F8011B94
:1009800089B18107FAD10268B2F10131914311F0C6
:10099000803F04BF50F8042FF6E710F8011B11B197
:1009A00010F8011BFBE7C01A70470000C9B28307AB
:1009B00006D0521E22D310F8013B9942F7D11FE016
:1009C000083A13D302F1040241EA012141EA01414C
:1009D00050F8043B121F21BF4B40A3F1013C2CEA0D
:1009E000030C1CF0803FF3D0C9B2001F083210F88E
:1009F000013B521E28BF91EA030FF8D818BF01200F
:100A0000401E704780B500F0E5F8012002BD0000EF
:100A100070B5054605F10F00C408C046C046E400A5
:100A2000A54232D2082C04D2082402E0083000F09B
:100A300091F82248026811000CD1011D0A6802B326
:100A40001368A34238BF111DF8D310E01D68A542FA
:100A50000DD2191D0B68002BF8D11268011D00E0A2
:100A6000191D0B6893420CD01D68A542F8D361B1E3
:100A70000D682A68A2F10803A3420AD26A680A60D4
:100A80000FE000F0E1F80028D0D1C046C0460020B9
:100A900070BD63190B60121B6E685E600B681A6094
:100AA0002C60096800291DBF4A68002A091D002121
:100AB0000160C046C04605F1080070BDE00100209D
:100AC00070B504460D46164600F084F832462946B5
:100AD0002046BDE8704000F087B8000062B38B0785
:100AE00008D0521E11F8013B00F8013B00F02480B1
:100AF0008B07F6D1830740F0208000BF103A07D360
:100B000030B4B1E83810103AA0E83810F9D230BC4F
:100B1000530724BFB1E80810A0E8081044BF51F8FB
:100B2000043B40F8043BD20724BF31F8022B20F8E5
:100B3000022B44BF0B7803707047083A07D3B1E823
:100B40000810083A40F8043B40F804CBF7D25307AA
:100B5000E4E7000000B9704738B5A0F10804206848
:100B6000082833D310F0070F30D1C046C0461848CC
:100B7000416809B18C4203D26160446017E01946B4
:100B80004B680BB1A342FAD30B685D18AC421BD380
:100B9000A54204D12268D2180A600C4607E04A68D0
:100BA0001AB123681B199A420ED362604C606168C7
:100BB00051B1226813198B4206D1002303600868E3
:100BC0008018206048686060C046C04631BD0000A3
:100BD000E001002080B5DFF80C0000F04BF88069E0
:100BE00002BD00000800002030B430B90FF2480008
:100BF000D0E90045C2E900451BE00170012030BC8E
:100C0000704730B431B90FF23800D0E90045C3E97C
:100C100000450EE01AB930BC6FF00100704708B112
:100C20000A7802800978481E804130BCC043C00F5A
:100C30007047002030BC704700000000000000003A
:100C400000000000000000000749086808B100200B
:100C500070470648C008C00008600549C908C900B7
:100C6000091A0160704700BFE8010020FF21002041
:100C7000F84100207047000030B585B004000D0039
:100C80000020002000210021A8890028208A30F4BB
:100C90004050E98808432082A08927490840A98854
:100CA0002A8911436A8911430843A081A08A30F43C
:100CB0004070A9890843A08200A800F0B3F81C483E
:100CC000844202D01B48844201D1039800E002987C
:100CD000A189090406D51921484329684900B0FBB8
:100CE000F1F105E01921484329688900B0FBF1F1D1
:100CF0006420B1FBF0F000010209642303FB121130
:100D0000A289120408D5C90032316422B1FBF2F184
:100D100011F00701084307E0090132316422B1FBF9
:100D2000F2F111F00F010843208105B030BD000041
:100D30000010014000140140F3E9FFFFC9B200298F
:100D400004D0818951F40051818104E081894DF6FC
:100D5000FF721140818170478088C005C00D7047C7
:100D600030B4002300240024002589B240F66A1321
:100D7000994205000800C0B24309DBB289B211F004
:100D80001F04012010FA04F4012B01D10C3504E0FA
:100D9000022B01D1103500E01435D2B2002A03D065
:100DA00028682043286002E02868A043286030BCFF
:100DB000704789B28A0589B2C9430180704710B46F
:100DC000002200230022002289B240F66A129142DA
:100DD0000A00D2B25209D2B289B211F01F03012423
:100DE00014FA03F3012A02D18289134006E0022A91
:100DF00002D1028A134001E0828A134089B20A0AB2
:100E000092B2012111FA02F200880240002B03D0B5
:100E1000002A01D0012200E000221000C0B210BC64
:100E2000704700000021002100210222002102223F
:100E3000DFF83011096811F00C01002904D00429F1
:100E400006D0082908D033E0DFF82011016032E035
:100E5000DFF81C1101602EE0DFF80C110968C1F306
:100E60008051DFF80421126812F03F0200290AD0F5
:100E7000DFF8FC10B1FBF2F1DFF8EC201268C2F3EE
:100E80008812514309E0DFF8E410B1FBF2F1DFF81A
:100E9000D8201268C2F388125143DFF8CC201268C0
:100EA000C2F30142521C5200B1FBF2F1016002E0B8
:100EB000DFF8B8100160DFF8AC10096811F0F0013C
:100EC0000909DFF8B020895C02681300CB40436059
:100ED0002449096811F4E051890ADFF89820895CF7
:100EE00042681300CB4083601E49096811F46041D9
:100EF000490BDFF88020895C42681300CB40C36057
:100F00007047C9B2002905D01B49096808431A492E
:100F1000086005E01849096831EA000016490860D0
:100F20007047C9B2002905D014490968084313491C
:100F3000086005E01149096831EA00000F490860BE
:100F40007047C9B2002905D00D49096808430C490A
:100F5000086005E00A49096831EA000008490860AC
:100F60007047000008380240043802400024F400B2
:100F700000127A00B40000203038024040380240AD
:100F80004438024000220288444B98420ED0494B1C
:100F900098420BD0B0F1804F08D0414B984205D019
:100FA000404B984202D0404B984204D14FF68F7389
:100FB0001A404B881A433D4B984207D03C4B98420D
:100FC00004D04FF6FF431A400B891A4302804A6847
:100FD000C2620A880285314A904202D0354A904264
:100FE00001D1897A0186012181827047C9B2002925
:100FF00004D0018851F08001018004E001884FF69F
:101000007F72114001807047C9B2002904D0018865
:1010100051F00101018004E001884FF6FE72114099
:101020000180704730B4002300240022028C4FF668
:10103000FE731A400284048C8288038B4FF68F75EE
:101040002B404FF6FC752B400D882B434FF6FD755A
:101050002C408D892C434D882C43104DA84202D042
:10106000144DA84213D14FF6F7752C40CD892C436F
:101070004FF6FB752C408D882C434FF6FF652A40B8
:101080004FF6FF552A400D8A2A434D8A2A43828013
:10109000038389684163048430BC704700000140C9
:1010A0000004004000080040000C00400010004018
:1010B0000014004000040140416370470022028B8D
:1010C0004FF6F7731A400A4302837047002200224A
:1010D0000023028A0A40808911EA000392B2002AA2
:1010E00004D09BB2002B01D0012200E000221000AE
:1010F000C0B2704789B2C94301827047504909881C
:101100004906FBD50100C9B24E4A1180704710B59F
:1011100088B0040001210220FFF7F3FE0121102016
:10112000FFF70FFF07220621474800F0F0F80722DB
:101130000721454800F0EBF8C020019002208DF80F
:10114000080002208DF8090000208DF80A00012017
:101150008DF80B0001A93C4800F07CF803940020B6
:10116000ADF810000020ADF812000020ADF814001A
:101170000020ADF818000C20ADF8160003A9304887
:10118000FFF77AFD01212E48FFF7D8FD40212C48BA
:10119000FFF70FFE012240F225512948FFF7E0FD3D
:1011A00025208DF8000003208DF8010003208DF824
:1011B000020001208DF8030000A800F0D6F808B066
:1011C00010BD80B540F225511D48FFF7F8FD0028FD
:1011D00034D01B48FFF7C0FD1C49098809042DD4F1
:1011E0001A49098849040DD5C0B20A2803D0002045
:1011F0001649088022E01548008850F40040134941
:1012000008801BE0C0B20D2806D11048008850F4B9
:1012100080400E49088011E00D490C4A1288920462
:10122000920C505409480088401C0849088007481F
:101230000088C82802DB00200449088001BD0000A6
:10124000001001400410014000040240EE010020A3
:10125000C800002030B4002200230024002247E010
:10126000012393400C681C409C4240D10368032436
:101270001500EDB26D00AC40A343036003680C7928
:101280001500EDB26D00AC40234303600B79012BD8
:1012900002D00B79022B1AD1836803241500EDB21A
:1012A0006D00AC40A343836083684C791500EDB2B8
:1012B0006D00AC4023438360436801249440A34302
:1012C000436043688C799440A4B223434360C3686D
:1012D00003241500EDB26D00AC40A343C360C368A6
:1012E000CC791500EDB26D00AC402343C360521CB5
:1012F000102AB5D330BC70470022006989B2084279
:1013000001D0012200E000221000C0B2704770B48A
:1013100000230023D2B211F00703DBB29B0012FAC4
:1013200003F389B2CA1010EB820289B2CC1010EB21
:101330008404246A0F2511F00706F6B2B600B54002
:10134000AC43146289B2CA1010EB8202126A1343D2
:1013500089B2C91010EB8100036270BC70470000B5
:101360002449084324490860704710B40022002330
:101370000F24C178002921D01F49096811F4E061C8
:10138000D1F5E0610A0AD2F10403E4B221000C00B5
:101390001441417811FA03F2817821400A43120185
:1013A000164903785A540121027812F01F02914025
:1013B000134A0078401142F8201009E00121027818
:1013C00012F01F0291400F4A0078401142F820109D
:1013D00010BC7047042806D10B48006850F0040088
:1013E0000949086005E00848006830F00400064933
:1013F000086070470000FA050CED00E000E400E032
:1014000000E100E080E100E010E000E080B5444849
:10141000006850F00100424908600020414908601E
:101420003F480068404908403D4908603F484049FE
:1014300008603B48006830F480203949086000208B
:101440003C49086000F005F85FF000603A49086028
:1014500001BD82B00020019000200090304800685B
:1014600050F480302E4908602D48006810F4003098
:1014700000900198401C01900098002803D1019829
:10148000B0F5A06FF0D126480068800302D5012096
:10149000009001E000200090009801283ED12748EC
:1014A000006850F08050254908602548006850F4D5
:1014B0008040234908601B4800681A4908601948A1
:1014C000006850F40040174908601648006850F45E
:1014D000A050144908601B4815490860104800686E
:1014E00050F080700E4908600D4800688001FBD5FF
:1014F00040F20560144908600A48006880088000CE
:10150000084908600748006850F002000549086073
:101510000448006810F00C000828F9D102B07047A8
:101520000038024008380240FFFFF6FE1030002469
:10153000043802400C38024008ED00E04038024018
:101540000070004008544007003C024010B5040001
:101550007FF00400FFF73EFFE4B2082094FBF0F0B8
:1015600014490870134800784FF47A7110FB01F0A9
:101570001149088010BD80B20F49098848430F49BE
:10158000086000200E4908600E48006850F0010015
:101590000C4908600B48006810F001100128F9D0D0
:1015A00008480068400840000649086000200449D7
:1015B00008607047F0010020EC01002014E000E01A
:1015C00018E000E010E000E038B580B24FF4077199
:1015D00090FBF1F480B24FF4077190FBF1F201FB44
:1015E000120504E04FF40770FFF7C5FF641EE4B274
:1015F000002CF7D1ADB2002D03D0280080B2FFF748
:10160000BAFF31BD30B58BB004000D0001210420BC
:10161000FFF787FC01210820FFF773FC02220C2151
:101620001E48FFF774FE4FF48050009002208DF8A2
:10163000040000208DF8060003208DF8050002202C
:101640008DF8070000A91548FFF704FEADF8085013
:101650000020ADF80A0003940020ADF8100002A9A4
:101660000F48FFF78FFC6020ADF814000120ADF8A3
:1016700016000220ADF8200005A90948FFF7D2FCAA
:1016800008210748FFF71AFD01210548FFF7AEFCC6
:1016900001210348FFF7B8FC0BB030BD000C02403D
:1016A0000008004038B5002401254FF4A060FFF782
:1016B00057FEA820FFF74AFF5FF4E130FFF727FD50
:1016C000532140F2F310FFF79DFF144800F02EF86D
:1016D00016E0641EA4B22100114800F027F8A4B25D
:1016E000B4F5FA7F00DD0025A4B2002C00D101255D
:1016F000A4B221000B48FFF7DFFC0B4800F016F8FE
:101700000A20FFF761FFEDB2002DE2D0641CA4B205
:101710002100034800F00AF8E1E700BF341900088F
:1017200064190008000800406C1900080EB400B5E8
:1017300082B003A90091024600AB0121034878441E
:101740000A30FEF721FD06BC5DF810FBC501000064
:1017500019E050F8041BCB0744BFA9F10103591845
:10176000121F0023042A41F8043BF9D25FEA827C6D
:101770000B4604D54FF0000CA1F800C09B1CD1070C
:1017800044BF0021197050F8042B002AE1D17047A2
:1017900080B54FF4FA70FFF717FF01210948FFF7F2
:1017A000ABFD012809D108480068002801D10120BB
:1017B00000E00020C0B204490860012000F006F8F3
:1017C00001BD000000000240B082414201490860B2
:1017D00070470000143C014080B501210948FFF723
:1017E00075FC012809D108480068002801D10120B2
:1017F00000E00020C0B20449086001210148FFF761
:1018000079FC01BD00040040B482414280B5084823
:10181000007800F011F800F015F80648006800287C
:1018200001D1012000E00020C0B20249086001BDE2
:10183000C4000020B4824142C0B210F07F000349CE
:10184000086070470020024908607047002C004083
:10185000082C004010B450F8041B79B102684368AA
:1018600012180830DC0744BFA9F10104E31852F84C
:10187000044B43F8044B091FF9D1ECE710BC704747
:1018800010B5074979441831064C7C44163404E0FD
:101890000A68081D511888470146A142F8D110BDB9
:1018A0000800000028000000A9FEFFFF2C01000036
:1018B000C8000020000000009DFFFFFFC8000000DE
:1018C000EC010000000000200000000000F00BF818
:1018D000002801D0FFF7D4FF0020C046C046FFF724
:1018E000E1FE00F002F80120704700F001B80000AE
:1018F0000746384600F002F8FBE7000080B5C04616
:10190000C046024A11001820ABBEFBE726000200C9
:1019100038B504460D46284600F006F8A84218BF20
:101920000024204632BD00000149FFF7E7BB00BF9D
:10193000740000200D0AC4FAB7A2CBCDB5C4CFFB0A
:10194000CFA2CEAA3A0D0A000148804701480047BD
:101950000D14000859190008C046C046C046C046CC
:10196000FFF7B4FF25640D0A000000006F76657272
:1019700000000000FFF7FEBFFFF7FEBFFFF7FEBF4E
:10198000FFF7FEBFFFF7FEBFFFF7FEBFFFF7FEBF8B
:10199000FFF7FEBFFFF7FEBFFFF7FEBFFFF7FEBF7B
:1019A000FFF7FEBFFFF7FEBFFFF7FEBFFFF7FEBF6B
:1019B000FFF7FEBFFFF7FEBFFFF7FEBFFFF7FEBF5B
:1019C000FFF7FEBFFFF7FEBFFFF7FEBFFFF7FEBF4B
:1019D000FFF7FEBFFFF7FEBFFFF7FEBFFFF7FEBF3B
:1019E000FFF7FEBFFFF7FEBFFFF7FEBFFFF7FEBF2B
:1019F000FFF7FEBFFFF7FEBFFFF7FEBFFFF7FEBF1B
:101A0000FFF7FEBFFFF7FEBFFFF7FEBFFFF7FEBF0A
:101A1000FFF7FEBFFFF7FEBFFFF7FEBFFFF7FEBFFA
:101A2000FFF7FEBFFFF7FEBFFFF7FEBFFFF7FEBFEA
:101A3000FFF7FEBFFFF7FEBFFFF7FEBFFFF7FEBFDA
:101A4000FFF7FEBFFFF7FEBFFFF7FEBFFFF7FEBFCA
:101A5000FFF7FEBFFFF7FEBFFFF7FEBFFFF7FEBFBA
:101A6000FFF7FEBFFFF7FEBFFFF7FEBFFFF7FEBFAA
:101A7000FFF7FEBFFFF7FEBFFFF7FEBFFFF7FEBF9A
:101A8000FFF7FEBFFFF7FEBFFFF7FEBFFFF7FEBF8A
:101A9000FFF7FEBFFFF7FEBFFFF7FEBFFFF7FEBF7A
:101AA000FFF7FEBFFFF7FEBFFFF7FEBF000000001D
:101AB0000000000000000000000000000000000026
:101AC0000000000000000000000000000000000016
:101AD0000000000000000000000000000000000006
:101AE00000000000000000000000000000000000F6
:101AF00000000000000000000000000000000000E6
:101B000000000000000000000000000000000000D5
:101B100000000000000000000000000000000000C5
:101B20000204010190010020E0010020900100204A
:101B30009001002090010020B100002098000020BA
:101B40000000000000000000000000000000000095
:101B50000000000000000000000000000000000085
:101B60000000000001020304010203040607080943
:041B70007F000000F2
:04000005080019597D
:00000001FF
